S00E00004472697665722E73726563AA
S11300000C9434000C9451000C9451000C94510045
S11300100C9451000C9451000C9451000C94510018
S11300200C9451000C9451000C9451000C94510008
S11300300C9451000C9451000C9451000C945100F8
S11300400C9451000C9451000C9451000C945100E8
S11300500C9451000C9451000C9451000C945100D8
S11300600C9451000C94510011241FBECFEFD8E022
S1130070DEBFCDBF11E0A0E0B1E0E4EEF2E002C0EB
S113008005900D92A633B107D9F721E0A6E3B1E0BC
S113009001C01D92A633B207E1F70E9425010C941A
S11300A070010C94000080E480937C0086E88093C7
S11300B07A0008958770806480937C00EAE7F0E01A
S11300C0808180648083808186FDFDCF809178006B
S11300D090917900089580E00E945A00823391053E
S11300E080F08639910578F08C3221E0920768F02F
S11300F0843F21E0920758F08C3B924050F080E01E
S1130100089581E0089582E0089583E0089584E0ED
S1130110089585E00895299A85E08A95F1F700000D
S113012029988FE891E00197F1F700C00000089545
S11301302BB12F7030E1839FC0011124822B8BB926
S11301400E948B000895CF93C82F289882958F70B2
S11301500E9498008C2F8F700E949800C150C2306A
S113016030F48FE39FE10197F1F700C00000CF91D5
S11301700895CF93C82F289A82958F700E94980073
S11301808C2F8F700E9498008FE891E00197F1F70F
S113019000C00000CF91089584B1876084B98AB10A
S11301A0806F8AB985B1846885B92FEF80E792E0C2
S11301B0215080409040E1F700C00000289883E07F
S11301C00E9498008FE19EE40197F1F700C00000BF
S11301D083E00E9498008FE891E00197F1F700C056
S11301E0000083E00E9498008FE891E00197F1F706
S11301F000C0000082E00E9498008FE891E001971F
S1130200F1F700C0000088E20E94A3008CE00E9485
S1130210A30086E00E94A30081E00E94A3008FE374
S11302209FE10197F1F700C000000895CF93DF9399
S1130230EC018881882331F021960E94B9008991CC
S11302408111FBCFDF91CF9108950E94CC000E94D1
S1130250530084E091E00E9416012FEF83ED90E3B8
S1130260215080409040E1F700C000000E946B00E4
S1130270C82F81E00E94A300C330A9F028F4C13044
S113028041F0C23059F01EC0C43091F0C530A9F01D
S113029019C085E191E00E94160118C08BE191E03C
S11302A00E94160113C08EE191E00E9416010EC057
S11302B083E291E00E94160109C088E291E00E9465
S11302C0160104C08FE291E00E9416012FEF83EC27
S11302D099E0215080409040E1F700C00000C6CF73
S10702E0F894FFCFBC
S11302E4256C6400507265737320616E79206275A5
S11302F474746F6E00526967687400557000446FBB
S1130304776E004C6566740053656C656374004EC7
S10903146F206B65790007
S9030000FC
