S00E00004472697665722E73726563AA
S11300000C9434000C9451000C9451000C94510045
S11300100C9451000C9451000C9451000C94510018
S11300200C9451000C9451000C9451000C94FB005E
S11300300C9451000C9451000C9451000C945100F8
S11300400C9451000C9451000C9451000C945100E8
S11300500C9451000C9451000C9451000C945100D8
S11300600C9451000C94510011241FBECFEFD8E022
S1130070DEBFCDBF11E0A0E0B1E0E8EAF5E002C0E8
S113008005900D92A232B107D9F721E0A2E2B1E0C6
S113009001C01D92AE32B207E1F70E9463020C94D4
S11300A0D2020C940000299A85E08A95F1F70000A9
S11300B029988FE891E00197F1F700C000000895B6
S11300C02BB12F7030E1839FC0011124822B8BB997
S11300D00E9453000895CF93C82F289882958F705B
S11300E00E9460008C2F8F700E946000C150C2304B
S11300F030F48FE39FE10197F1F700C00000CF9146
S11301000895CF93C82F289A82958F700E9460001B
S11301108C2F8F700E9460008FE891E00197F1F7B7
S113012000C00000CF91089584B1876084B98AB17A
S1130130806F8AB92F9A2FEF80E792E02150804098
S11301409040E1F700C00000289883E00E9460001E
S11301508FE19EE40197F1F700C0000083E00E9464
S113016060008FE891E00197F1F700C0000083E0A0
S11301700E9460008FE891E00197F1F700C0000051
S113018082E00E9460008FE891E00197F1F700C0DF
S1130190000088E20E946B008CE00E946B0086E005
S11301A00E946B0081E00E946B008FE39FE1019746
S11301B0F1F700C000000895CF93DF93EC0188812C
S11301C0882331F021960E94810089918111FBCF0F
S11301D0DF91CF910895109280008AE0809381008E
S11301E082E080936F00089584B1886384B92D9A66
S11301F00E94EB0008951F920F920FB60F921124E4
S1130200CF92DF92EF92FF920F931F932F933F931E
S11302104F935F936F937F938F939F93AF93BF930A
S1130220EF93FF938091260190912701A0912801DB
S1130230B0912901892B8A2B8B2B09F4E0C0809182
S1130240240181115FC02C9A81E080932401809164
S1130250260190912701A0912801B0912901181637
S113026019061A061B063CF580912A0190912B0170
S1130270A0912C01B0912D010196A11DB11D809377
S11302802A0190932B01A0932C01B0932D0180910E
S1130290260190912701A0912801B091290101978D
S11302A0A109B1098093260190932701A093280105
S11302B0B09329019CC080912A0190912B01A091B7
S11302C02C01B0912D010197A109B10980932A0154
S11302D090932B01A0932C01B0932D0180912601C2
S11302E090912701A0912801B09129010196A11DA7
S11302F0B11D8093260190932701A0932801B09308
S1130300290175C02C9810922401809122019091AA
S1130310230101968333910528F49093230180935C
S1130320220165C0109223011092220180912601BE
S113033090912701A0912801B091290100912601F3
S113034010912701209128013091290140912A011F
S113035050912B0160912C0170912D016C01992316
S113036024F4CC24DD24C81AD90A0D2C000CEE0880
S1130370FF08C801992324F488279927801B910B2F
S1130380092E000CAA0BBB0B8C019D01040F151F39
S1130390261F371FC901B80123E030E040E050E0D8
S11303A00E9491022C153D054E055F0584F4809151
S11303B00001909101014597D0F080910001909146
S11303C001010297909301018093000110C0809174
S11303D0000190910101883E934048F4809100010E
S11303E09091010105969093010180930001809101
S11303F00001909101019093890080938800FF91FE
S1130400EF91BF91AF919F918F917F916F915F9188
S11304104F913F912F911F910F91FF90EF90DF909B
S1130420CF900F900FBE0F901F9018950F931F93AE
S113043000912A0110912B0120912C0130912D0162
S1130440DC01CB01880F991FAA1FBB1F880F991FBE
S1130450AA1FBB1F880F991FAA1FBB1F880F991FB4
S1130460AA1FBB1F801B910BA20BB30B8093260109
S113047090932701A0932801B0932901809126012C
S113048090912701A0912801B0912901BB2314F078
S11304902B9A01C02B982D9A88EE93E0909301013A
S11304A080930001109225018091260190912701EB
S11304B0A0912801B0912901892B8A2B8B2BA1F7BC
S11304C01F910F9108950E94940082E091E00E9490
S11304D0DC0080EC0E946B0082E191E00E94DC0071
S11304E00E94F400789460E476E080E090E00E945A
S11304F016022FEF89E698E1215080409040E1F701
S113050000C0000060E070E0CB010E9416022FEFF3
S113051089E698E1215080409040E1F700C0000056
S1130520E2CF052E97FB1EF400940E94A80257FD0B
S113053007D00E94B00207FC03D04EF40C94A8022A
S113054050954095309521953F4F4F4F5F4F0895FB
S113055090958095709561957F4F8F4F9F4F08952B
S1130560A1E21A2EAA1BBB1BFD010DC0AA1FBB1FB3
S1130570EE1FFF1FA217B307E407F50720F0A21B25
S1130580B30BE40BF50B661F771F881F991F1A9492
S113059069F760957095809590959B01AC01BD01BC
S10B05A0CF010895F894FFCF88
S11305A8E80348656C6C6F2C204844343437383081
S11305B8210052533D5042302C20454E3D5042318B
S10505C800002D
S9030000FC
