S00E00004472697665722E73726563AA
S11300000C943A000C9457000C9457000C9457002D
S11300100C9457000C9457000C9457000C94570000
S11300200C9457000C9457000C9457000C946F02D6
S11300300C9457000C9457000C9457000C945700E0
S11300400C9457000C9457000C94A8020C9457007D
S11300500C9457000C9457000C9457000C945700C0
S11300600C9457000C9457006364696E6F70737539
S113007078585B0011241FBECFEFD8E0DEBFCDBFA0
S113008011E0A0E0B1E0E4EBF4E102C005900D92D0
S1130090A237B107D9F721E0A2E7B1E001C01D9270
S11300A0AF3AB207E1F70E94ED020C94580A0C949F
S11300B000001092C50087E68093C40088E980930D
S11300C0C10086E08093C2000895E0ECF0E09081E6
S11300D095FFFDCF8093C6000895CF93DF93EC0185
S11300E08881882331F021960E94650089918111CD
S11300F0FBCFDF91CF91089580E480937C0086E864
S113010080937A0008958770806480937C00EAE786
S1130110F0E0808180648083808186FDFDCF8091C2
S1130120780090917900089580E00E9483008233E2
S1130130910580F08639910578F08C3221E09207A0
S113014068F0843F21E0920758F08C3B924050F0D5
S113015080E0089581E0089582E0089583E00895A1
S113016084E0089585E008950E94940090917201BE
S1130170891771F02FEF80E792E021508040904082
S1130180E1F700C000000E949400982F8093720150
S1130190892F0895299A85E08A95F1F70000299816
S11301A08FE891E00197F1F700C0000008952BB1AA
S11301B02F7030E1839FC0011124822B8BB90E94E0
S11301C0CA000895CF93C82F289882958F700E94F3
S11301D0D7008C2F8F700E94D700C150C23030F4EA
S11301E08FE39FE10197F1F700C00000CF910895DC
S11301F0CF93C82F289A82958F700E94D7008C2F96
S11302008F700E94D7008FE891E00197F1F700C04A
S11302100000CF910895882311F02A9A08952A980E
S1130220089584B1876084B98AB1806F8AB981E006
S11302300E940B012FEF80E792E021508040904014
S1130240E1F700C00000289883E00E94D7008FE106
S11302509EE40197F1F700C0000083E00E94D700FC
S11302608FE891E00197F1F700C0000083E00E945D
S1130270D7008FE891E00197F1F700C0000082E019
S11302800E94D7008FE891E00197F1F700C00000C9
S113029088E20E94E2008CE00E94E20086E00E9474
S11302A0E20081E00E94E2008FE39FE10197F1F711
S11302B000C000000895CF93DF93EC018881882368
S11302C031F021960E94F80089918111FBCFDF91D2
S11302D0CF91089581E00E94E200809177018130FE
S11302E029F488E091E00E945B010DC080917701C0
S11302F0823029F484E191E00E945B0104C080E231
S113030091E00E945B0180EC0E94E20020910001D8
S11303103091010180910201909103013F932F9349
S11303209F938F9386E291E09F938F9389E991E065
S11303309F938F930E943A0489E991E00E945B01A4
S11303408DB79EB708960FB6F8949EBF0FBE8DBFAB
S1130350089584B1886384B92D980895882311F091
S11303602D9A08952D980895009711F481E090E056
S113037090930101809300012091000130910101CB
S113038040E050E060E874E88EE190E00E94E5030C
S113039021503109309389002093880008950F93E8
S11303A01F93CF93DF9300D0CDB7DEB78C01FC0150
S11303B08081833581F51A821982CE0101969F933B
S11303C08F938EE291E09F938F930F5F1F4F1F9344
S11303D00F930E945C040F900F900F900F900F905A
S11303E00F90019709F05AC08A818F9389818F9366
S11303F081E391E09F938F930E9424040E946D00F7
S113040089819A8190930301809302010F900F9048
S11304100F900F9043C08635E9F41A821982CE01F9
S113042001969F938F938EE291E09F938F930F5F3A
S11304301F4F1F930F930E945C040F900F900F9017
S11304400F900F900F90019749F589819A810E942E
S1130450B40124C069E371E0C8010E941B04892B24
S113046061F4809102019091030121E020937401D1
S1130470909376018093750111C06BE371E0C8011C
S11304800E941B04892B51F4809102019091030175
S11304901092740190937601809375010E946A0111
S11304A00F900F90DF91CF911F910F910895CF93EB
S11304B0DF93C1E8D0E0888188608883EFE6F0E0CC
S11304C080818260808380910001909101010E946B
S11304D0B401888182608883DF91CF9108951F924F
S11304E00F920FB60F9211248F939F93CF93DF93A4
S11304F01F92CDB7DEB78091750190917601892B5B
S1130500E9F080917401882311F02C9A01C02C9891
S11305102B9A19828981843138F4000089818F5F94
S1130520898389818431C8F32B98809175019091D6
S11305307601019790937601809375010F90DF9176
S1130540CF919F918F910F900FBE0F901F90189590
S11305501F920F920FB60F9211242F933F934F9334
S11305605F936F937F938F939F93AF93BF93EF9317
S1130570FF938091C6008A3021F08D3011F08536CA
S113058069F4E0917801F0E0E758FE4F108289E7C2
S113059091E00E94CF01109278010EC090917801F1
S11305A09F3150F4E091780191E09E0F909378018F
S11305B0F0E0E758FE4F8083FF91EF91BF91AF9138
S11305C09F918F917F916F915F914F913F912F9167
S11305D00F900FBE0F901F9018950E9411010E945A
S11305E07C000E94A90181E00E94AE010E94570292
S11305F00E94590078948DE391E00E946D008CE490
S113060091E00E945B012FEF83ED90E32150804045
S11306109040E1F700C000000E946A01C0E0D0E011
S113062003E010E080917301882361F0209174014C
S113063080910201909103012093740190937601BB
S1130640809375010E94B400853071F4C111A5C076
S11306508091770190E00196B8010E94D1038093C4
S113066077010E946A0199C09091770191112BC082
S1130670813099F40E94E2008DE591E00E945B01D3
S1130680809102019091030121E0209374019093E1
S1130690760180937501CD2F76C0843009F070C047
S11306A081E00E94E20088E691E00E945B01809173
S11306B0020190910301D093740190937601809389
S11306C07501CD2F60C0823031F580917701813082
S11306D059F480910201909103018C599F4F90939A
S11306E003018093020113C080917701823079F471
S11306F08091000190910101C29690930101809331
S1130700000180910001909101010E94B4010E94B6
S11307106A01CD2F38C08330A9F5809177018130EB
S113072091F480910201909103018436910558F06F
S113073080910201909103018456910990930301E1
S11307408093020119C0809177018230A9F48091CD
S1130750000190910101C39778F08091000190917C
S11307600101C297909301018093000180910001DF
S1130770909101010E94B4010E946A01CD2F03C02F
S1130780CD2F01C0CD2F2FEF81EE94E0215080407A
S11307909040E1F700C0000045CF80917701C1E0AF
S11307A0F2CF97FB072E16F4009407D077FD09D0FB
S11307B00E94070407FC05D03EF4909581959F4F55
S11307C00895709561957F4F0895A1E21A2EAA1B92
S11307D0BB1BFD010DC0AA1FBB1FEE1FFF1FA217ED
S11307E0B307E407F50720F0A21BB30BE40BF50BEA
S11307F0661F771F881F991F1A9469F76095709573
S1130800809590959B01AC01BD01CF010895AA1B71
S1130810BB1B51E107C0AA1FBB1FA617B70710F0E7
S1130820A61BB70B881F991F5A95A9F78095909519
S1130830BC01CD010895FB01DC018D91019080196B
S11308400110D9F3990B0895A0E0B0E0EAE2F4E0D6
S11308500C94310AAE014B5F5F4FFA0161917191C3
S1130860AF018091AB019091AC010E947504E2E06C
S11308700C944D0AAEE0B0E0E0E4F4E00C942F0AEE
S11308800D891E8986E08C831A8309838FEF9FE785
S11308909E838D83AE01475E5F4F6F89788DCE0155
S11308A001960E947504EF81F885E00FF11F108214
S11308B02E96E4E00C944B0AAEE0B0E0E2E6F4E0FD
S11308C00C94310A85E08C838B899C899A83898373
S11308D0AE01495E5F4F6D897E89CE0101960E940B
S11308E0F2072E96E2E00C944D0AABE0B0E0EBE7A1
S11308F0F4E00C94210A6C017B018A01FC0117824B
S11309001682838181FFCCC1CE0101963C01F601A0
S11309109381F70193FD859193FF81917F01882352
S113092009F4BAC1853239F493FD859193FF81911D
S11309307F01853229F4B60190E00E946B09E7CF6C
S1130940912C212C312CFFE1F315D8F08B3279F066
S113095038F4803279F08332A1F4232D20611DC054
S11309608D3261F0803369F4232D216016C0832D0C
S11309708260382EE32DE4603E2E2AC0F32DF86009
S11309801DC037FC2DC020ED280F2A3040F08E32D8
S1130990B9F436FC81C1232D2064322E19C036FEF1
S11309A006C08AE0989E200D1124922E11C0EAE020
S11309B02E9E200D1124222EF32DF0623F2E08C00E
S11309C08C3621F4832D8068382E02C0883641F499
S11309D0F70193FD859193FF81917F018111B3CF3D
S11309E0982F9F7D9554933028F40C5F1F4F9FE3FD
S11309F099830DC0833631F0833771F0833509F064
S1130A0059C021C0F801808189830E5F1F4F88245B
S1130A108394912C530113C02801F2E04F0E511C12
S1130A20F801A080B18036FE03C0692D70E002C0D9
S1130A306FEF7FEFC5010E9422094C018201F32D63
S1130A40FF773F2E16C0280122E0420E511CF80108
S1130A50A080B18036FE03C0692D70E002C06FEF44
S1130A607FEFC5010E9417094C01F32DF0683F2E5A
S1130A70820133FC1BC0822D90E088169906B0F4E5
S1130A80B60180E290E00E946B092A94F4CFF5014C
S1130A9037FC859137FE81915F01B60190E00E9499
S1130AA06B0921102A9421E0821A9108811491047F
S1130AB071F7E8C0843611F0893641F5F80137FE44
S1130AC007C060817181828193810C5F1F4F08C0D0
S1130AD060817181072E000C880B990B0E5F1F4FEC
S1130AE0F32DFF763F2E97FF09C090958095709562
S1130AF061957F4F8F4F9F4FF0683F2E2AE030E083
S1130B00A3010E94C009882E861845C0853731F498
S1130B10232D2F7EB22E2AE030E025C0932D997F1D
S1130B20B92E8F36C1F018F4883579F0B5C0803706
S1130B3019F0883721F0B0C0E92FE061BE2EB4FE71
S1130B400DC0FB2DF460BF2E09C034FE0AC0292F4E
S1130B502660B22E06C028E030E005C020E130E077
S1130B6002C020E132E0F801B7FE07C06081718164
S1130B70828193810C5F1F4F06C06081718180E088
S1130B8090E00E5F1F4FA3010E94C009882E8618B3
S1130B90FB2DFF773F2E36FE0DC0232D2E7FA22E78
S1130BA0891458F434FE0BC032FC09C0832D8E7EA8
S1130BB0A82E05C0B82CA32C03C0B82C01C0B92C96
S1130BC0A4FE0FC0FE01E80DF11D8081803321F4E5
S1130BD09A2D997EA92E09C0A2FE06C0B394B3949F
S1130BE004C08A2D867809F0B394A3FC11C0A0FE3A
S1130BF006C0B21488F4280C922C9B180EC0B214B0
S1130C0060F4B60180E290E00E946B09B394F7CFE0
S1130C10B21418F42B1802C0982C212CA4FE10C076
S1130C20B60180E390E00E946B09A2FE17C0A1FC0C
S1130C3003C088E790E002C088E590E0B6010CC0EC
S1130C408A2D867859F0A1FE02C08BE201C080E2B1
S1130C50A7FC8DE2B60190E00E946B09891438F478
S1130C60B60180E390E00E946B099A94F7CF8A94CE
S1130C70F301E80DF11D8081B60190E00E946B093B
S1130C808110F5CF222009F442CEB60180E290E033
S1130C900E946B092A94F6CFF6018681978102C0DF
S1130CA08FEF9FEF2B96E2E10C943D0A20FD09C0E3
S1130CB0FC0123FD05C022FF02C0738362835183BC
S1130CC04083089544FD17C046FD17C0AB01BC0125
S1130CD0DA01FB01AA0FBB1FEE1FFF1F1094D1F70F
S1130CE04A0F5B1F6E1F7F1FCB01BA01660F771F70
S1130CF0881F991F09C033E001C034E0660F771FD5
S1130D00881F991F3150D1F7620F711D811D911DEC
S1130D1008950F931F93CF93DF938C01C8010E9412
S1130D202D09EC0197FD08C00E940309892BB1F736
S1130D30B801CE010E94A709CE01DF91CF911F9186
S1130D400F9108958F929F92AF92BF92EF92FF926C
S1130D500F931F93CF93DF938C01D62F7A01B22E7A
S1130D600E942D099C0133272B32310531F02D329D
S1130D70310561F48B2D8068B82ED15011F480E0D8
S1130D8068C0C8010E942D0997FDF9CFCB2DCD7FF6
S1130D902B2D207309F58033F9F4AA24AA94AD0EFF
S1130DA009F443C0C8010E942D0997FD3EC09C016F
S1130DB02F7D33272835310549F4C264D250A9F177
S1130DC0C8010E942D0997FF07C02FC0B6FE02C0BC
S1130DD0C26001C0C261DA2D812C912C540120ED36
S1130DE0280F283080F0C4FF04C0B8010E94A7096E
S1130DF019C02A3040F0C6FFF8CF2F7D3FEE320FE6
S1130E00363098F727504C2FC501B4010E94620672
S1130E104B015C01C260D15059F0C8010E942D09F8
S1130E2097FFDDCFC1FD04C0AACF812C912C5401C2
S1130E30C7FF08C0B094A09490948094811C911C26
S1130E40A11CB11C2C2FB501A401C7010E94560698
S1130E5081E0DF91CF911F910F91FF90EF90BF90B0
S1130E60AF909F908F900895A0E2B0E0EAE3F7E09E
S1130E700C94240A5C01962E7A01F9018E010F5F0D
S1130E801F4F680180E2D8011D928A95E9F7D501C8
S1130E9013968C9080E090E0612C712C30E061E03E
S1130EA070E083FC259183FE21918F01522E211144
S1130EB003C080E090E092C02E3511F4009751F108
S1130EC0432F50E0481759073CF42D3559F12D3282
S1130ED019F4772009F103C0772009F46AC0452D7D
S1130EE0469546954695D601A40FB11D452D4770EC
S1130EF08B0102C0000F111F4A95E2F7A8015C9113
S1130F00452B4C93651459F0561410F45394E7CFC1
S1130F105A94E5CF31E004C07724739401C0712C56
S1130F200196BFCF772019F08E8180628E833111B4
S1130F3003C08824839417C0F6019E012F5D3F4FA0
S1130F408081809581932E173F07D1F7F2CFE1146A
S1130F50F10429F0D7018C93F70131967F019A941B
S1130F60812C9920F9F0C5010E942D0997FD18C024
S1130F70FC01FF2723E0F595E7952A95E1F7EC0DB1
S1130F80FD1D208130E0AC014770552702C0359526
S1130F9027954A95E2F720FDDACFB5010E94A7090B
S1130FA0811087CFE114F10411F0D7011C92C8011C
S1130FB015C0422F469546954695D601A40FB11DFE
S1130FC0422F47708B0102C0000F111F4A95E2F7B0
S1130FD0A8015C91452B4C93622EA2CFA096EFE022
S1130FE00C94400AA0E0B0E0E8EFF7E00C94240A87
S1130FF06C01EB015A01FC0117821682512CF60197
S1131000E380FE01E3FC8591E3FE8191182FEF015B
S1131010882309F4EEC090E00E940309892B21F093
S1131020C6010E948906EBCF153241F4FE01E3FCB0
S11310301591E3FE1191EF01153281F4C6010E946E
S11310402D0997FDD4C0412F50E09C01332724176C
S11310503507A9F2B6010E94A709CBC01A3239F4A8
S1131060E3FC1591E3FE1191EF0101E001C000E002
S1131070F12C20ED210F2A3080F402606F2D70E0F6
S113108080E090E040E20E946206F62EFE01E3FC5E
S11310901591E3FE1191EF01ECCF01FF03C0F110B4
S11310A003C0A7C0FF24FA94183619F01C3651F077
S11310B010C0FE01E3FC1591E3FE1191EF01183617
S11310C041F408600460FE01E3FC1591E3FE119114
S11310D0EF01112309F48DC0612F70E088E690E0E0
S11310E00E940C09892B09F484C000FD07C0F50196
S11310F080809180C50102965C0102C0812C912CF4
S11311001E3651F4F6014681578160E070E0202FCD
S1131110C4010E94560673CF1336A9F401FD02C020
S1131120FF24F394C6010E942D0997FD60C0811429
S1131130910429F0F4018083C40101964C01FA94CE
S1131140F110F0CF50C01B3559F49E01A4016F2D4E
S1131150C6010E943407EC01892B09F044C03EC04B
S1131160C6010E94890697FD42C01F3661F128F42A
S1131170143639F1193651F128C0133771F0153787
S113118001F123C08114910429F0F4016082C401A7
S113119001964C01FA94FF2071F0C6010E942D09BA
S11311A03C0197FD08C00E940309892B59F3B6013D
S11311B0C3010E94A70981149104A9F0F4011082CB
S11311C012C0006203C0006101C00064202FA401AA
S11311D06F2DC6010E94A206811105C0F60183810C
S11311E0807329F406C000FD0ACF539408CF55201C
S11311F019F0852D90E002C08FEF9FEFCDB7DEB7D9
S1131200EFE00C94400A91110C941E0A803219F0FC
S113121089508550C8F70895FC010590061621F001
S11312200020D9F7C00108953197CF010895FC013A
S11312300590615070400110D8F7809590958E0FFD
S11312409F1F0895FC016150704001900110D8F770
S1131250809590958E0F9F1F0895CF93DF93EC0197
S11312602B8120FF33C026FF0AC02F7B2B838E8166
S11312709F8101969F838E838A8190E029C022FFFB
S11312800FC0E881F9818081082E000C990B00972A
S113129019F420622B831AC03196F983E8830EC0B7
S11312A0EA85FB85099597FF09C02B81019611F00A
S11312B080E201C080E1822B8B8308C02E813F81B4
S11312C02F5F3F4F3F832E83992702C08FEF9FEFFD
S11312D0DF91CF9108950F931F93CF93DF93FB0179
S11312E0238121FD03C08FEF9FEF2CC022FF16C086
S11312F046815781248135814217530744F4A081E4
S1131300B1819D012F5F3F4F318320838C932681D0
S113131037812F5F3F4F3783268314C08B01EC0145
S1131320FB010084F185E02D0995892BE1F6D801B4
S113133016968D919C911797019617969C938E9370
S11313401697CE01DF91CF911F910F910895FB0164
S1131350238120FF12C026FD10C08F3F3FEF93076B
S113136061F082832F7D206423832681378121507D
S1131370310937832683992708958FEF9FEF0895C6
S1131380FA01AA27283051F1203181F1E8946F93B2
S11313906E7F6E5F7F4F8F4F9F4FAF4FB1E03ED058
S11313A0B4E03CD0670F781F891F9A1FA11D680FF6
S11313B0791F8A1F911DA11D6A0F711D811D911D29
S11313C0A11D20D009F468943F912AE0269F11249E
S11313D03019305D3193DEF6CF010895462F477002
S11313E0405D4193B3E00FD0C9F7F6CF462F4F705D
S11313F0405D4A3318F0495D31FD4052419302D0BB
S1131400A9F7EACFB4E0A695979587957795679560
S1131410BA95C9F700976105710508959B01AC0160
S11314200A2E06945795479537952795BA95C9F787
S1131430620F731F841F951FA01D08959927882785
S113144008952F923F924F925F926F927F928F9264
S11314509F92AF92BF92CF92DF92EF92FF920F933F
S11314601F93CF93DF93CDB7DEB7CA1BDB0B0FB649
S1131470F894DEBF0FBECDBF09942A883988488806
S11314805F846E847D848C849B84AA84B984C8849C
S1131490DF80EE80FD800C811B81AA81B981CE0F93
S11314A0D11D0FB6F894DEBF0FBECDBFED01089578
S10714B0F894FFCFDA
S11314B4C800E803256C64004564697420537465AA
S11314C470733A00456469742053706565643A0026
S11314D4526561647900533A25752020563A25757E
S11314E40056616C3A2025730052004C0053746515
S11314F4707065722072656164790A005072657354
S11315047320616E7920627574746F6E004D6F760A
S113151465205269676874004D6F7665204C656672
S105152474004D
S9030000FC
