S00E00004472697665722E73726563AA
S11300000C9434000C9451000C9451000C94510045
S11300100C9451000C9451000C9451000C94510018
S11300200C9451000C9451000C9451000C94BE019A
S11300300C9451000C9451000C9451000C945100F8
S11300400C9451000C9451000C9451000C945100E8
S11300500C9451000C9451000C9451000C945100D8
S11300600C9451000C94510011241FBECFEFD8E022
S1130070DEBFCDBF11E0A0E0B1E0E6EFFBE002C0DF
S113008005900D92A835B107D9F721E0A8E5B1E0B4
S113009001C01D92AD36B207E1F70E94F7010C943E
S11300A0F9050C94000080E480937C0086E880933A
S11300B07A0008958770806480937C00EAE7F0E01A
S11300C0808180648083808186FDFDCF809178006B
S11300D090917900089580E00E945A00823391053E
S11300E080F08639910578F08C3221E0920768F02F
S11300F0843F21E0920758F08C3B924050F080E01E
S1130100089581E0089582E0089583E0089584E0ED
S1130110089585E008950E946B0090915801891715
S113012071F02FEF80E792E0215080409040E1F79A
S113013000C000000E946B00982F80935801892F03
S11301400895299A85E08A95F1F7000029988FE8A7
S113015091E00197F1F700C0000008952BB12F70D2
S113016030E1839FC0011124822B8BB90E94A1002E
S11301700895CF93C82F289882958F700E94AE005F
S11301808C2F8F700E94AE00C150C23030F48FE3C8
S11301909FE10197F1F700C00000CF910895CF933C
S11301A0C82F289A82958F700E94AE008C2F8F7072
S11301B00E94AE008FE891E00197F1F700C00000C3
S11301C0CF910895882311F02A9A08952A980895C2
S11301D084B1876084B98AB1806F8AB981E00E9452
S11301E0E2002FEF80E792E0215080409040E1F759
S11301F000C00000289883E00E94AE008FE19EE4D6
S11302000197F1F700C0000083E00E94AE008FE880
S113021091E00197F1F700C0000083E00E94AE0076
S11302208FE891E00197F1F700C0000082E00E949E
S1130230AE008FE891E00197F1F700C0000088E27A
S11302400E94B9008CE00E94B90086E00E94B900C7
S113025081E00E94B9008FE39FE10197F1F700C0AC
S113026000000895CF93DF93EC018881882331F057
S113027021960E94CF0089918111FBCFDF91CF910C
S1130280089581E00E94B90080915C01813029F4D5
S113029088E091E00E9432010DC080915C018230BF
S11302A029F484E191E00E94320104C080E291E0EB
S11302B00E94320180EC0E94B9002091000130912B
S11302C0010180910201909103013F932F939F9329
S11302D08F9386E291E09F938F938DE591E09F93B6
S11302E08F930E940F038DE591E00E9432018DB738
S11302F09EB708960FB6F8949EBF0FBE8DBF0895A3
S113030084B1886384B92D980895882311F02D9AB7
S113031008952D980895009711F481E090E090934A
S1130320010180930001209100013091010140E01E
S113033050E060E874E88EE190E00E94D902215018
S1130340310930938900209388000895CF93DF9377
S1130350C1E8D0E0888188608883EFE6F0E080819E
S11303608260808380910001909101010E948B0141
S1130370888182608883DF91CF9108951F920F92C4
S11303800FB60F9211248F939F93CF93DF931F92F5
S1130390CDB7DEB780915A0190915B01892BE9F0CA
S11303A080915901882311F02C9A01C02C982B9A22
S11303B019828981843138F4000089818F5F8983AF
S11303C089818431C8F32B9880915A0190915B0103
S11303D0019790935B0180935A010F90DF91CF9125
S11303E09F918F910F900FBE0F901F9018950E94B0
S11303F0E8000E9453000E94800181E00E94850170
S11304000E94A601789481E391E00E9432012FEFCB
S113041083ED90E3215080409040E1F700C000005C
S11304200E944101C0E0D0E003E010E00E948B0094
S1130430853071F4C111A5C080915C0190E00196F2
S1130440B8010E94C50280935C010E94410199C0D9
S113045090915C0191112BC0813099F40E94B900F4
S113046082E491E00E9432018091020190910301A3
S113047021E02093590190935B0180935A01CD2F81
S113048076C0843009F070C081E00E94B9008DE428
S113049091E00E9432018091020190910301D09376
S11304A0590190935B0180935A01CD2F60C0823033
S11304B031F580915C01813059F480910201909171
S11304C003018C599F4F909303018093020113C041
S11304D080915C01823079F4809100019091010156
S11304E0C296909301018093000180910001909144
S11304F001010E948B010E944101CD2F38C083303D
S1130500A9F580915C01813091F480910201909170
S113051003018436910558F0809102019091030102
S113052084569109909303018093020119C080912C
S11305305C018230A9F48091000190910101C3977C
S113054078F08091000190910101C297909301018C
S11305508093000180910001909101010E948B0120
S11305600E944101CD2F03C0CD2F01C0CD2F2FEF0D
S113057081EE94E0215080409040E1F700C00000FB
S113058055CF80915C01C1E0F2CF97FB072E16F4A2
S1130590009407D077FD09D00E94FB0207FC05D028
S11305A03EF4909581959F4F0895709561957F4F86
S11305B00895A1E21A2EAA1BBB1BFD010DC0AA1FA0
S11305C0BB1FEE1FFF1FA217B307E407F50720F0B8
S11305D0A21BB30BE40BF50B661F771F881F991F33
S11305E01A9469F760957095809590959B01AC017C
S11305F0BD01CF010895AA1BBB1B51E107C0AA1F6F
S1130600BB1FA617B70710F0A61BB70B881F991FAF
S11306105A95A9F780959095BC01CD010895AEE057
S1130620B0E0E5E1F3E00C94D0050D891E8986E085
S11306308C831A8309838FEF9FE79E838D83AE019A
S1130640475E5F4F6F89788DCE0101960E9431031A
S1130650EF81F885E00FF11F10822E96E4E00C94F0
S1130660EC05ABE0B0E0E7E3F3E00C94C2056C0109
S11306707B018A01FC0117821682838181FFCCC130
S1130680CE0101963C01F6019381F70193FD85911A
S113069093FF81917F01882309F4BAC1853239F42B
S11306A093FD859193FF81917F01853229F4B601F1
S11306B090E00E942805E7CF912C212C312CFFE1FA
S11306C0F315D8F08B3279F038F4803279F0833234
S11306D0A1F4232D20611DC08D3261F0803369F4B3
S11306E0232D216016C0832D8260382EE32DE46013
S11306F03E2E2AC0F32DF8601DC037FC2DC020ED1E
S1130700280F2A3040F08E32B9F436FC81C1232DF3
S11307102064322E19C036FE06C08AE0989E200D51
S11307201124922E11C0EAE02E9E200D1124222EB7
S1130730F32DF0623F2E08C08C3621F4832D80689F
S1130740382E02C0883641F4F70193FD859193FF5A
S113075081917F018111B3CF982F9F7D9554933060
S113076028F40C5F1F4F9FE399830DC0833631F04B
S1130770833771F0833509F059C021C0F8018081B5
S113078089830E5F1F4F88248394912C530113C0D7
S11307902801F2E04F0E511CF801A080B18036FE12
S11307A003C0692D70E002C06FEF7FEFC5010E94A6
S11307B01D054C018201F32DFF773F2E16C0280141
S11307C022E0420E511CF801A080B18036FE03C025
S11307D0692D70E002C06FEF7FEFC5010E94120522
S11307E04C01F32DF0683F2E820133FC1BC0822D97
S11307F090E088169906B0F4B60180E290E00E9479
S113080028052A94F4CFF50137FC859137FE8191B0
S11308105F01B60190E00E94280521102A9421E08E
S1130820821A91088114910471F7E8C0843611F09A
S1130830893641F5F80137FE07C0608171818281F4
S113084093810C5F1F4F08C060817181072E000CDB
S1130850880B990B0E5F1F4FF32DFF763F2E97FFEA
S113086009C090958095709561957F4F8F4F9F4FEC
S1130870F0683F2E2AE030E0A3010E946405882E30
S1130880861845C0853731F4232D2F7EB22E2AE0F9
S113089030E025C0932D997FB92E8F36C1F018F41E
S11308A0883579F0B5C0803719F0883721F0B0C0A9
S11308B0E92FE061BE2EB4FE0DC0FB2DF460BF2E07
S11308C009C034FE0AC0292F2660B22E06C028E0D3
S11308D030E005C020E130E002C020E132E0F80160
S11308E0B7FE07C060817181828193810C5F1F4FC5
S11308F006C06081718180E090E00E5F1F4FA3010C
S11309000E946405882E8618FB2DFF773F2E36FE45
S11309100DC0232D2E7FA22E891458F434FE0BC053
S113092032FC09C0832D8E7EA82E05C0B82CA32CC2
S113093003C0B82C01C0B92CA4FE0FC0FE01E80D01
S1130940F11D8081803321F49A2D997EA92E09C04E
S1130950A2FE06C0B394B39404C08A2D867809F02D
S1130960B394A3FC11C0A0FE06C0B21488F4280CF2
S1130970922C9B180EC0B21460F4B60180E290E091
S11309800E942805B394F7CFB21418F42B1802C0B0
S1130990982C212CA4FE10C0B60180E390E00E94A4
S11309A02805A2FE17C0A1FC03C088E790E002C09E
S11309B088E590E0B6010CC08A2D867859F0A1FE36
S11309C002C08BE201C080E2A7FC8DE2B60190E098
S11309D00E942805891438F4B60180E390E00E944F
S11309E028059A94F7CF8A94F301E80DF11D8081CC
S11309F0B60190E00E9428058110F5CF222009F469
S1130A0042CEB60180E290E00E9428052A94F6CFF7
S1130A10F6018681978102C08FEF9FEF2B96E2E16A
S1130A200C94DE05FC010590615070400110D8F76C
S1130A30809590958E0F9F1F0895FC016150704022
S1130A4001900110D8F7809590958E0F9F1F0895FF
S1130A500F931F93CF93DF93FB01238121FD03C0E9
S1130A608FEF9FEF2CC022FF16C04681578124814F
S1130A7035814217530744F4A081B1819D012F5F52
S1130A803F4F318320838C93268137812F5F3F4FE3
S1130A903783268314C08B01EC01FB010084F185AC
S1130AA0E02D0995892BE1F6D80116968D919C913C
S1130AB01797019617969C938E931697CE01DF9104
S1130AC0CF911F910F910895FA01AA27283051F16F
S1130AD0203181F1E8946F936E7F6E5F7F4F8F4F6B
S1130AE09F4FAF4FB1E03ED0B4E03CD0670F781FCA
S1130AF0891F9A1FA11D680F791F8A1F911DA11DAF
S1130B006A0F711D811D911DA11D20D009F46894E7
S1130B103F912AE0269F11243019305D3193DEF68F
S1130B20CF010895462F4770405D4193B3E00FD045
S1130B30C9F7F6CF462F4F70405D4A3318F0495D30
S1130B4031FD4052419302D0A9F7EACFB4E0A69513
S1130B509795879577956795BA95C9F70097610535
S1130B60710508959B01AC010A2E0694579547958B
S1130B7037952795BA95C9F7620F731F841F951F80
S1130B80A01D08952F923F924F925F926F927F9291
S1130B908F929F92AF92BF92CF92DF92EF92FF9289
S1130BA00F931F93CF93DF93CDB7DEB7CA1BDB0B35
S1130BB00FB6F894DEBF0FBECDBF09942A883988DA
S1130BC048885F846E847D848C849B84AA84B984E1
S1130BD0C884DF80EE80FD800C811B81AA81B981ED
S1130BE0CE0FD11D0FB6F894DEBF0FBECDBFED0101
S1090BF00895F894FFCF04
S1130BF6C800E803256C6400456469742053746571
S1130C0670733A00456469742053706565643A00EC
S1130C16526561647900533A25752020563A257544
S1130C2600507265737320616E7920627574746FF7
S1130C366E004D6F7665205269676874004D6F7655
S10B0C4665204C656674000092
S9030000FC
